:100476000213000002100000020E0000020C000031
:0D04860001120102080000010A00010B0034
:1004CE00438E805389F0758AA0758C15C28DC28CAF
:0104DE0022FB
:1004A800438E805389F0758AA0758C15D28CD2A999
:0304B800D2AF229E
:1004BB00438E805389F0758AA0758C15C28CC2A9A6
:0304CB00C2AF229B
:040452007F0A7E009F
:10045600E4FDFCC3ED9FEC9E5015E4FBFA0BBB00DC
:0F046600010AEB64644A70F50DBD00010C80E4DF
:010475002264
:03000300D2A02266
:03000600C2A02273
:0304DF00C2A32293
:0304E200D2A32280
:0304E500C2A2228E
:0304E800D2A2227B
:0304EB00C2A12289
:0304EE00D2A12276
:1003B100120452759601E4F595C2A01204E21204EA
:1003C100E81204EE1204CE1204A8751201E512B46B
:1003D10001101200BA7D0A7C00AF11AE1012000E9E
:1003E10080EBE512B4020512015780E1E512B40376
:1003F100051202F280D7E512B404D212028080CD38
:03000B0002042CC0
:04042C00C0E0C0D09C
:100430000509E50970020508D394C7E50894004052
:0D0440000C750800750900750C00750D01A4
:05044D00D0D0D0E03228
:1000BA0075150075161EC2A3D2A1D2A220B238208D
:1000CA00B33512045220B22920B32675120230B277
:1000DA000320B31DA2A1B392A192A292A37FE87EAC
:1000EA00031204567D0A7C00AF11AE1012000E8076
:1000FA00DDE5126402605520B21C12045220B216C9
:10010A000511E51170020510D3946FE5109417409C
:10011A0005E4F510F51120B31912045220B313D3D4
:10012A00E5119400E51094004008E51115117002DC
:10013A001510E5161516AE15700215154E600D7DD3
:0C014A000A7C00AF11AE1012000E80E61F
:010156002286
:1001570075150075161EC2A2D2A1D2A320B23820EF
:10016700B33512045220B22920B32675120330B2D8
:100177000320B31DA2A1B392A192A292A37D0A7CF0
:1001870000AF0FAE0E12000E7FE87E0312045680FA
:10019700DDE5126403605520B21C12045220B2162A
:1001A700050FE50F7002050ED3946FE50E94174007
:1001B70005E4F50EF50F20B31912045220B313D33B
:1001C700E50F9400E50E94004008E50F150F700247
:1001D700150EE5161516AE15700215154E600D7D38
:0C01E7000A7C00AF0FAE0E12000E80E686
:0101F30022E9
:1002F200D2A3C2A230B20320B31912045230B20305
:1003020020B310E4F50EF50FF510F511751201C2C8
:10031200A080EAE50D450C6036E4F50CF50D050A02
:10032200E50F450E7003751204E50AB43B1FE4F5B0
:100332000AD3E50F9400E50E94004008E50F150F6F
:100342007002150EE50F450E7003751204B2A17D01
:0A0352000A7C00AF0FAE0E02000E91
:10028000C2A3D2A230B20320B31912045230B20377
:1002900020B310E4F50EF50FF510F511751201C23B
:1002A000A080EAE50D450C603EE4F50CF50DE51186
:1002B00045107007C2A07512018002D2A0050BE59F
:1002C0000BB43B21E4F50BD3E5119400E510940049
:1002D0004008E511151170021510E5114510700563
:1002E000C2A0751201B2A17D0A7C00AF11AE10024E
:0202F000000EFE
:10049400C0F9A4B0999282F880904079243019125E
:0404A40002780010CA
:0B0401003CF583E493F590AF1AAE19B0
:10040C00E4FDFCC3ED9FEC9E5015E4FBFA0BBB0026
:0F041C00010AEB64644A70F50DBD00010C80E429
:01042B0022AE
:10000E008E178F188C198D1AC2A4C2A5C2A6D2A79C
:10001E007C007D3C12035C7E007F0ACFCDCFCECC20
:10002E00CE12035C74942DF5827404120401C2A4E2
:10003E00C2A5D2A6C2A7AE17AF187C007D3C120394
:10004E005C7E007F0ACFCDCFCECCCE12035C7494F3
:10005E002FF58274043E120402C2A4D2A5C2A6C217
:10006E00A7AE17AF187C007D3C12035C7C007D0AA6
:10007E0012035C749E2DF5827404120401D2A4C284
:10008E00A5C2A6C2A7AE17AF187C007D3C12035CBA
:10009E007C007D0A12035C74942FF58274043EF585
:0C00AE0083E493F590AF1AAE1902040C25
:030000000201F406
:0C01F400787FE4F6D8FD75811A02023B0A
:10035C00BC000BBE0029EF8DF084FFADF022E4CC85
:10036C00F875F008EF2FFFEE33FEEC33FCEE9DEC4E
:10037C00984005FCEE9DFE0FD5F0E9E4CEFD22ED94
:10038C00F8F5F0EE8420D21CFEADF075F008EF2FDE
:10039C00FFED33FD4007985006D5F0F222C398FDCF
:0503AC000FD5F0EA226C
:100200000203B1E493A3F8E493A34003F68001F260
:1002100008DFF48029E493A3F85407240CC8C333FF
:10022000C4540F4420C8834004F456800146F6DFCE
:10023000E4800B0102040810204080900476E47EE4
:10024000019360BCA3FF543F30E509541FFEE493C3
:10025000A360010ECF54C025E060A840B8E493A38A
:10026000FAE493A3F8E493A3C8C582C8CAC583CAB5
:10027000F0A3C8C582C8CAC583CADFE9DEE780BE6D
:010493000068
:00000001FF
