:1002C600011800011A00011B00011C0001160001A3
:1002D600170001190002080000020A0000020C00C3
:1002E60000020E00000210000002120000021400BC
:0102F6000007
:10037D00438E805389F0758AA0758C15C28DC28C01
:01038D00224D
:10035700438E805389F0758AA0758C15D28CD2A9EB
:03036700D2AF22F0
:10036A00438E805389F0758AA0758C15C28CC2A9F8
:03037A00C2AF22ED
:10032300E4FDFCC3ED9FEC9E5015E4FBFA0BBB0010
:0F033300010AEB64644A70F50DBD00010C80E413
:010342002298
:03000300D2A02266
:03000600C2A02273
:03038E00C2A322E5
:03039100D2A322D2
:03039400B2A322EF
:03039700C2A222DD
:03039A00D2A222CA
:03039D00B2A222E7
:100213007F0A7E00120323759601E4F59512037D90
:10022300E518C394014003E4F518E51AC3940240AA
:1002330003E4F51AE51BC394044003E4F51BE51C32
:10024300C3940A4003E4F51CE516C394144003E485
:10025300F516E517C394644003E4F517E519C39451
:0E026300C840BDE4F51912039412039D80B249
:03000B0002000EE2
:04000E00C0E0C0D0BE
:10001200C3E5099401E508940040097508007509D3
:1000220000751801C3E50B9402E50A9400400975B6
:100032000A00750B00751A01C3E50D9404E50C94D2
:10004200004009750C00750D00751B01C3E50F9486
:100052000AE50E94004009750E00750F00751C012B
:10006200C3E5119414E51094004009751000751150
:1000720000751601C3E5139464E5129400400975F6
:100082001200751300751701C3E51594C8E51494A1
:100092000040097514007515007519010509E50977
:1000A20070020508050BE50B7002050A050DE50D4A
:1000B2007002050C050FE50F7002050E0511E51122
:1000C200700205100513E513700205120515E515FA
:0400D200700205149F
:0500D600D0D0D0E032A3
:10034300C0F9A4B0999282F88090407924301912B0
:04035300027800101C
:0B02F8003CF583E493F590AF20AE1FAF
:10030300E4FDFCC3ED9FEC9E5015E4FBFA0BBB0030
:0F031300010AEB64644A70F50DBD00010C80E433
:0103220022B8
:1000DB008E1D8F1E8C1F8D20C2A4C2A5C2A6D2A7B7
:1000EB007C007D3C1202717E007F0ACFCDCFCECC3F
:1000FB00CE12027174432DF58274031202F8C2A45E
:10010B00C2A5D2A6C2A7AE1DAF1E7C007D3C1202BB
:10011B00717E007F0ACFCDCFCECCCE12027174434D
:10012B002FF58274033E1202F9C2A4D2A5C2A6C255
:10013B00A7AE1DAF1E7C007D3C1202717C007D0AB8
:10014B00120271744D2DF58274031202F8D2A4C2FF
:10015B00A5C2A6C2A7AE1DAF1E7C007D3C120271CC
:10016B007C007D0A12027174432FF58274033EF5F5
:0C017B0083E493F590AF20AE1F02030355
:0300000002018773
:0C018700787FE4F6D8FD7581200201CEDF
:10027100BC000BBE0029EF8DF084FFADF022E4CC71
:10028100F875F008EF2FFFEE33FEEC33FCEE9DEC3A
:10029100984005FCEE9DFE0FD5F0E9E4CEFD22ED80
:1002A100F8F5F0EE8420D21CFEADF075F008EF2FCA
:1002B100FFED33FD4007985006D5F0F222C398FDBB
:0502C1000FD5F0EA2258
:10019300020213E493A3F8E493A34003F68001F26D
:1001A30008DFF48029E493A3F85407240CC8C3336D
:1001B300C4540F4420C8834004F456800146F6DF3C
:1001C300E4800B01020408102040809002C6E47E04
:1001D300019360BCA3FF543F30E509541FFEE49331
:1001E300A360010ECF54C025E060A840B8E493A3F8
:1001F300FAE493A3F8E493A3C8C582C8CAC583CA23
:10020300F0A3C8C582C8CAC583CADFE9DEE780BEDA
:0102F7000006
:00000001FF
